{
  "contractName": "Vendor",
  "abi": [
    {
      "inputs": [
        {
          "internalType": "address",
          "name": "tokenAddress",
          "type": "address"
        }
      ],
      "stateMutability": "nonpayable",
      "type": "constructor"
    },
    {
      "anonymous": false,
      "inputs": [
        {
          "indexed": false,
          "internalType": "address",
          "name": "buyer",
          "type": "address"
        },
        {
          "indexed": false,
          "internalType": "uint256",
          "name": "amoutOfEth",
          "type": "uint256"
        },
        {
          "indexed": false,
          "internalType": "uint256",
          "name": "amountOfTokens",
          "type": "uint256"
        }
      ],
      "name": "BuyTokens",
      "type": "event"
    },
    {
      "anonymous": false,
      "inputs": [
        {
          "indexed": true,
          "internalType": "address",
          "name": "previousOwner",
          "type": "address"
        },
        {
          "indexed": true,
          "internalType": "address",
          "name": "newOwner",
          "type": "address"
        }
      ],
      "name": "OwnershipTransferred",
      "type": "event"
    },
    {
      "inputs": [],
      "name": "owner",
      "outputs": [
        {
          "internalType": "address",
          "name": "",
          "type": "address"
        }
      ],
      "stateMutability": "view",
      "type": "function",
      "constant": true
    },
    {
      "inputs": [],
      "name": "renounceOwnership",
      "outputs": [],
      "stateMutability": "nonpayable",
      "type": "function"
    },
    {
      "inputs": [],
      "name": "tokensPerEth",
      "outputs": [
        {
          "internalType": "uint256",
          "name": "",
          "type": "uint256"
        }
      ],
      "stateMutability": "view",
      "type": "function",
      "constant": true
    },
    {
      "inputs": [
        {
          "internalType": "address",
          "name": "newOwner",
          "type": "address"
        }
      ],
      "name": "transferOwnership",
      "outputs": [],
      "stateMutability": "nonpayable",
      "type": "function"
    },
    {
      "inputs": [],
      "name": "buyTokens",
      "outputs": [
        {
          "internalType": "uint256",
          "name": "tokenAmount",
          "type": "uint256"
        }
      ],
      "stateMutability": "payable",
      "type": "function",
      "payable": true
    },
    {
      "inputs": [
        {
          "internalType": "uint256",
          "name": "tokenAmountToSell",
          "type": "uint256"
        }
      ],
      "name": "sellTokens",
      "outputs": [],
      "stateMutability": "nonpayable",
      "type": "function"
    },
    {
      "inputs": [],
      "name": "withdraw",
      "outputs": [],
      "stateMutability": "nonpayable",
      "type": "function"
    }
  ],
  "bytecode": "0x608060405260646002553480156200001657600080fd5b50604051620017033803806200170383398181016040528101906200003c9190620001da565b6200005c62000050620000a460201b60201c565b620000ac60201b60201c565b80600160006101000a81548173ffffffffffffffffffffffffffffffffffffffff021916908373ffffffffffffffffffffffffffffffffffffffff160217905550506200020c565b600033905090565b60008060009054906101000a900473ffffffffffffffffffffffffffffffffffffffff169050816000806101000a81548173ffffffffffffffffffffffffffffffffffffffff021916908373ffffffffffffffffffffffffffffffffffffffff1602179055508173ffffffffffffffffffffffffffffffffffffffff168173ffffffffffffffffffffffffffffffffffffffff167f8be0079c531659141344cd1fd0a4f28419497f9722a3daafe3b4186f6b6457e060405160405180910390a35050565b600080fd5b600073ffffffffffffffffffffffffffffffffffffffff82169050919050565b6000620001a28262000175565b9050919050565b620001b48162000195565b8114620001c057600080fd5b50565b600081519050620001d481620001a9565b92915050565b600060208284031215620001f357620001f262000170565b5b60006200020384828501620001c3565b91505092915050565b6114e7806200021c6000396000f3fe6080604052600436106100705760003560e01c80638da5cb5b1161004e5780638da5cb5b146100cc578063cbdd69b5146100f7578063d0febe4c14610122578063f2fde38b1461014057610070565b80633ccfd60b146100755780636c11bcd31461008c578063715018a6146100b5575b600080fd5b34801561008157600080fd5b5061008a610169565b005b34801561009857600080fd5b506100b360048036038101906100ae9190610b0d565b6102dd565b005b3480156100c157600080fd5b506100ca6105f6565b005b3480156100d857600080fd5b506100e161067e565b6040516100ee9190610b7b565b60405180910390f35b34801561010357600080fd5b5061010c6106a7565b6040516101199190610ba5565b60405180910390f35b61012a6106ad565b6040516101379190610ba5565b60405180910390f35b34801561014c57600080fd5b5061016760048036038101906101629190610bec565b61090e565b005b610171610a06565b73ffffffffffffffffffffffffffffffffffffffff1661018f61067e565b73ffffffffffffffffffffffffffffffffffffffff16146101e5576040517f08c379a00000000000000000000000000000000000000000000000000000000081526004016101dc90610c76565b60405180910390fd5b60004790506000811161022d576040517f08c379a000000000000000000000000000000000000000000000000000000000815260040161022490610ce2565b60405180910390fd5b60003373ffffffffffffffffffffffffffffffffffffffff164760405161025390610d33565b60006040518083038185875af1925050503d8060008114610290576040519150601f19603f3d011682016040523d82523d6000602084013e610295565b606091505b50509050806102d9576040517f08c379a00000000000000000000000000000000000000000000000000000000081526004016102d090610dba565b60405180910390fd5b5050565b60008111610320576040517f08c379a000000000000000000000000000000000000000000000000000000000815260040161031790610e4c565b60405180910390fd5b6000600160009054906101000a900473ffffffffffffffffffffffffffffffffffffffff1673ffffffffffffffffffffffffffffffffffffffff166370a08231336040518263ffffffff1660e01b815260040161037d9190610b7b565b602060405180830381865afa15801561039a573d6000803e3d6000fd5b505050506040513d601f19601f820116820180604052508101906103be9190610e81565b905081811015610403576040517f08c379a00000000000000000000000000000000000000000000000000000000081526004016103fa90610f20565b60405180910390fd5b6000600254836104139190610f9e565b905060004790508181101561045d576040517f08c379a000000000000000000000000000000000000000000000000000000000815260040161045490611041565b60405180910390fd5b6000600160009054906101000a900473ffffffffffffffffffffffffffffffffffffffff1673ffffffffffffffffffffffffffffffffffffffff166323b872dd3330886040518463ffffffff1660e01b81526004016104be93929190611061565b6020604051808303816000875af11580156104dd573d6000803e3d6000fd5b505050506040513d601f19601f8201168201806040525081019061050191906110d0565b905080610543576040517f08c379a000000000000000000000000000000000000000000000000000000000815260040161053a9061116f565b60405180910390fd5b3373ffffffffffffffffffffffffffffffffffffffff168360405161056790610d33565b60006040518083038185875af1925050503d80600081146105a4576040519150601f19603f3d011682016040523d82523d6000602084013e6105a9565b606091505b505080915050806105ef576040517f08c379a00000000000000000000000000000000000000000000000000000000081526004016105e6906111db565b60405180910390fd5b5050505050565b6105fe610a06565b73ffffffffffffffffffffffffffffffffffffffff1661061c61067e565b73ffffffffffffffffffffffffffffffffffffffff1614610672576040517f08c379a000000000000000000000000000000000000000000000000000000000815260040161066990610c76565b60405180910390fd5b61067c6000610a0e565b565b60008060009054906101000a900473ffffffffffffffffffffffffffffffffffffffff16905090565b60025481565b60008034116106f1576040517f08c379a00000000000000000000000000000000000000000000000000000000081526004016106e890611247565b60405180910390fd5b6000600254346107019190611267565b90506000600160009054906101000a900473ffffffffffffffffffffffffffffffffffffffff1673ffffffffffffffffffffffffffffffffffffffff166370a08231306040518263ffffffff1660e01b81526004016107609190610b7b565b602060405180830381865afa15801561077d573d6000803e3d6000fd5b505050506040513d601f19601f820116820180604052508101906107a19190610e81565b9050818110156107e6576040517f08c379a00000000000000000000000000000000000000000000000000000000081526004016107dd90611333565b60405180910390fd5b6000600160009054906101000a900473ffffffffffffffffffffffffffffffffffffffff1673ffffffffffffffffffffffffffffffffffffffff1663a9059cbb33856040518363ffffffff1660e01b8152600401610845929190611353565b6020604051808303816000875af1158015610864573d6000803e3d6000fd5b505050506040513d601f19601f8201168201806040525081019061088891906110d0565b9050806108ca576040517f08c379a00000000000000000000000000000000000000000000000000000000081526004016108c1906113c8565b60405180910390fd5b7f0a37b72bb67eee30e09084cf386f8a17817c57f620c3ab95fb25d6a20356ec773334856040516108fd939291906113e8565b60405180910390a182935050505090565b610916610a06565b73ffffffffffffffffffffffffffffffffffffffff1661093461067e565b73ffffffffffffffffffffffffffffffffffffffff161461098a576040517f08c379a000000000000000000000000000000000000000000000000000000000815260040161098190610c76565b60405180910390fd5b600073ffffffffffffffffffffffffffffffffffffffff168173ffffffffffffffffffffffffffffffffffffffff1614156109fa576040517f08c379a00000000000000000000000000000000000000000000000000000000081526004016109f190611491565b60405180910390fd5b610a0381610a0e565b50565b600033905090565b60008060009054906101000a900473ffffffffffffffffffffffffffffffffffffffff169050816000806101000a81548173ffffffffffffffffffffffffffffffffffffffff021916908373ffffffffffffffffffffffffffffffffffffffff1602179055508173ffffffffffffffffffffffffffffffffffffffff168173ffffffffffffffffffffffffffffffffffffffff167f8be0079c531659141344cd1fd0a4f28419497f9722a3daafe3b4186f6b6457e060405160405180910390a35050565b600080fd5b6000819050919050565b610aea81610ad7565b8114610af557600080fd5b50565b600081359050610b0781610ae1565b92915050565b600060208284031215610b2357610b22610ad2565b5b6000610b3184828501610af8565b91505092915050565b600073ffffffffffffffffffffffffffffffffffffffff82169050919050565b6000610b6582610b3a565b9050919050565b610b7581610b5a565b82525050565b6000602082019050610b906000830184610b6c565b92915050565b610b9f81610ad7565b82525050565b6000602082019050610bba6000830184610b96565b92915050565b610bc981610b5a565b8114610bd457600080fd5b50565b600081359050610be681610bc0565b92915050565b600060208284031215610c0257610c01610ad2565b5b6000610c1084828501610bd7565b91505092915050565b600082825260208201905092915050565b7f4f776e61626c653a2063616c6c6572206973206e6f7420746865206f776e6572600082015250565b6000610c60602083610c19565b9150610c6b82610c2a565b602082019050919050565b60006020820190508181036000830152610c8f81610c53565b9050919050565b7f4f776e657220686173206e6f2062616c616e636520746f207769746864726177600082015250565b6000610ccc602083610c19565b9150610cd782610c96565b602082019050919050565b60006020820190508181036000830152610cfb81610cbf565b9050919050565b600081905092915050565b50565b6000610d1d600083610d02565b9150610d2882610d0d565b600082019050919050565b6000610d3e82610d10565b9150819050919050565b7f4661696c656420746f2073656e6420757365722062616c616e6365206261636b60008201527f20746f20746865206f776e657200000000000000000000000000000000000000602082015250565b6000610da4602d83610c19565b9150610daf82610d48565b604082019050919050565b60006020820190508181036000830152610dd381610d97565b9050919050565b7f5370656369667920616e20616d6f756e74206f6620746f6b656e20677265617460008201527f6572207468616e207a65726f0000000000000000000000000000000000000000602082015250565b6000610e36602c83610c19565b9150610e4182610dda565b604082019050919050565b60006020820190508181036000830152610e6581610e29565b9050919050565b600081519050610e7b81610ae1565b92915050565b600060208284031215610e9757610e96610ad2565b5b6000610ea584828501610e6c565b91505092915050565b7f596f75722062616c616e6365206973206c6f776572207468616e20746865206160008201527f6d6f756e74206f6620746f6b656e7320796f752077616e7420746f2073656c6c602082015250565b6000610f0a604083610c19565b9150610f1582610eae565b604082019050919050565b60006020820190508181036000830152610f3981610efd565b9050919050565b7f4e487b7100000000000000000000000000000000000000000000000000000000600052601260045260246000fd5b7f4e487b7100000000000000000000000000000000000000000000000000000000600052601160045260246000fd5b6000610fa982610ad7565b9150610fb483610ad7565b925082610fc457610fc3610f40565b5b828204905092915050565b7f56656e646f7220646f6573206e6f74206861766520656e6f7567682066756e6460008201527f7320746f20616363657074207468652073656c6c207265717565737400000000602082015250565b600061102b603c83610c19565b915061103682610fcf565b604082019050919050565b6000602082019050818103600083015261105a8161101e565b9050919050565b60006060820190506110766000830186610b6c565b6110836020830185610b6c565b6110906040830184610b96565b949350505050565b60008115159050919050565b6110ad81611098565b81146110b857600080fd5b50565b6000815190506110ca816110a4565b92915050565b6000602082840312156110e6576110e5610ad2565b5b60006110f4848285016110bb565b91505092915050565b7f4661696c656420746f207472616e7366657220746f6b656e732066726f6d207560008201527f73657220746f2076656e646f7200000000000000000000000000000000000000602082015250565b6000611159602d83610c19565b9150611164826110fd565b604082019050919050565b600060208201905081810360008301526111888161114c565b9050919050565b7f4661696c656420746f2073656e642045544820746f2074686520757365720000600082015250565b60006111c5601e83610c19565b91506111d08261118f565b602082019050919050565b600060208201905081810360008301526111f4816111b8565b9050919050565b7f53656e642045544820746f2062757920736f6d6520746f6b656e730000000000600082015250565b6000611231601b83610c19565b915061123c826111fb565b602082019050919050565b6000602082019050818103600083015261126081611224565b9050919050565b600061127282610ad7565b915061127d83610ad7565b9250817fffffffffffffffffffffffffffffffffffffffffffffffffffffffffffffffff04831182151516156112b6576112b5610f6f565b5b828202905092915050565b7f56656e646f7220636f6e747261637420646f6573206e6f74206861766520656e60008201527f6f75676820746f6b656e7320666f722074686973207472616e73616374696f6e602082015250565b600061131d604083610c19565b9150611328826112c1565b604082019050919050565b6000602082019050818103600083015261134c81611310565b9050919050565b60006040820190506113686000830185610b6c565b6113756020830184610b96565b9392505050565b7f4661696c656420746f207472616e7366657220746f6b656e20746f2075736572600082015250565b60006113b2602083610c19565b91506113bd8261137c565b602082019050919050565b600060208201905081810360008301526113e1816113a5565b9050919050565b60006060820190506113fd6000830186610b6c565b61140a6020830185610b96565b6114176040830184610b96565b949350505050565b7f4f776e61626c653a206e6577206f776e657220697320746865207a65726f206160008201527f6464726573730000000000000000000000000000000000000000000000000000602082015250565b600061147b602683610c19565b91506114868261141f565b604082019050919050565b600060208201905081810360008301526114aa8161146e565b905091905056fea2646970667358221220aabc2799c18fa7b38d92a32532c1741008eacbc15ffb71e40b21f5c47f9b076864736f6c634300080b0033",
  "immutableReferences": {},
  "source": "// SPDX-License-Identifier: MIT\r\npragma solidity ^0.8.0;\r\n\r\nimport \"../node_modules/openzeppelin-solidity/contracts/token/ERC20/ERC20.sol\";\r\nimport \"../node_modules/openzeppelin-solidity/contracts/access/Ownable.sol\";\r\nimport \"./REMYToken.sol\";\r\n\r\ncontract Vendor is Ownable {\r\n    // Token Contract\r\n    REMYToken Remy;\r\n\r\n    // token proce for ETH\r\n    uint256 public tokensPerEth = 100;\r\n\r\n    // Event to log buy operation\r\n    event BuyTokens(address buyer, uint256 amoutOfEth, uint256 amountOfTokens);\r\n\r\n    constructor(address tokenAddress) {\r\n        Remy = REMYToken(tokenAddress);\r\n    }\r\n\r\n    /**\r\n     * @notice Allow users to buy token for ETH\r\n     */\r\n    function buyTokens() public payable returns (uint256 tokenAmount) {\r\n        require(msg.value > 0, \"Send ETH to buy some tokens\");\r\n\r\n        uint256 amountToBuy = msg.value * tokensPerEth;\r\n\r\n        // check if the Vendor Contract has enough amount of tokens for the transaction\r\n        uint256 vendorBalance = Remy.balanceOf(address(this));\r\n        require(\r\n            vendorBalance >= amountToBuy,\r\n            \"Vendor contract does not have enough tokens for this transaction\"\r\n        );\r\n\r\n        // Transfer token(s) to the msg.sender\r\n        bool sent = Remy.transfer(msg.sender, amountToBuy);\r\n        require(sent, \"Failed to transfer token to user\");\r\n\r\n        //emit the event\r\n        emit BuyTokens(msg.sender, msg.value, amountToBuy);\r\n\r\n        return amountToBuy;\r\n    }\r\n\r\n    /**\r\n     * @notice Allow users to buy token for ETH\r\n     */\r\n    function sellTokens(uint256 tokenAmountToSell) public {\r\n        // check that the requested amount of tokens to sell is more than 0\r\n        require(\r\n            tokenAmountToSell > 0,\r\n            \"Specify an amount of token greater than zero\"\r\n        );\r\n\r\n        // check that the user's token balance is enough to do the swap\r\n        uint256 userBalance = Remy.balanceOf(msg.sender);\r\n        require(\r\n            userBalance >= tokenAmountToSell,\r\n            \"Your balance is lower than the amount of tokens you want to sell\"\r\n        );\r\n\r\n        // check that the vendor's balance is enough to do the swap\r\n        uint256 amountOfETHToTransfer = tokenAmountToSell / tokensPerEth;\r\n        uint256 ownerETHBalance = address(this).balance;\r\n        require(\r\n            ownerETHBalance >= amountOfETHToTransfer,\r\n            \"Vendor does not have enough funds to accept the sell request\"\r\n        );\r\n\r\n        bool sent = Remy.transferFrom(\r\n            msg.sender,\r\n            address(this),\r\n            tokenAmountToSell\r\n        );\r\n        require(sent, \"Failed to transfer tokens from user to vendor\");\r\n\r\n        (sent, ) = msg.sender.call{value: amountOfETHToTransfer}(\"\");\r\n        require(sent, \"Failed to send ETH to the user\");\r\n    }\r\n\r\n    /**\r\n     * @notice Allow contract owner to withdraw ETH\r\n     */\r\n    function withdraw() public onlyOwner {\r\n        uint256 ownerBalance = address(this).balance;\r\n        require(ownerBalance > 0, \"Owner has no balance to withdraw\");\r\n\r\n        (bool sent, ) = msg.sender.call{value: address(this).balance}(\"\");\r\n        require(sent, \"Failed to send user balance back to the owner\");\r\n    }\r\n}\r\n",
  "sourcePath": "C:\\Users\\bryan\\REMYToken\\contracts\\Vendor.sol",
  "compiler": {
    "name": "solc",
    "version": "0.8.11+commit.d7f03943.Emscripten.clang"
  },
  "schemaVersion": "3.4.4",
  "updatedAt": "2022-03-27T11:26:17.208Z",
  "networkType": "ethereum",
  "devdoc": {
    "kind": "dev",
    "methods": {
      "owner()": {
        "details": "Returns the address of the current owner."
      },
      "renounceOwnership()": {
        "details": "Leaves the contract without owner. It will not be possible to call `onlyOwner` functions anymore. Can only be called by the current owner. NOTE: Renouncing ownership will leave the contract without an owner, thereby removing any functionality that is only available to the owner."
      },
      "transferOwnership(address)": {
        "details": "Transfers ownership of the contract to a new account (`newOwner`). Can only be called by the current owner."
      }
    },
    "version": 1
  },
  "userdoc": {
    "kind": "user",
    "methods": {
      "buyTokens()": {
        "notice": "Allow users to buy token for ETH"
      },
      "sellTokens(uint256)": {
        "notice": "Allow users to buy token for ETH"
      },
      "withdraw()": {
        "notice": "Allow contract owner to withdraw ETH"
      }
    },
    "version": 1
  }
}